:100000000C941A010C942F010C942F010C942F01C5
:100010000C942F010C942F010C942F010C942F01A0
:100020000C942F010C942F010C942F010C942F0190
:100030000C942F010C942F010C942F010C942F0180
:100040000C942F010C942F010C942F010C942F0170
:100050000C942F01000000000000005F000000076A
:10006000000700147F147F14242A7F2A1223130808
:10007000646236495522500005030000001C2241ED
:10008000000041221C0014083E081408083E08081D
:1000900000503000000808080808006060000020D8
:1000A000100804023E5149453E00427F4000426133
:1000B0005149462141454B311814127F10274545BF
:1000C00045393C4A494930017109050336494949D6
:1000D00036064949291E0036360000005636000013
:1000E00008142241001414141414004122140802AC
:1000F00001510906324979413E7E1111117E7F4935
:100100004949363E414141227F4141221C7F4949B4
:1001100049417F090909013E4149497A7F08080898
:100120007F00417F41002040413F017F0814224170
:100130007F404040407F020C027F7F0408107F3EDA
:100140004141413E7F090909063E4151215E7F0937
:10015000192946464949493101017F01013F404083
:10016000403F1F2040201F3F4038403F6314081489
:100170006307087008076151494543007F4141000A
:1001800002040810200041417F00040201020440E3
:1001900040404040000102040020545454787F48FD
:1001A0004444383844444420384444487F38545404
:1001B0005418087E0901020C5252523E7F08040472
:1001C0007800447D40002040443D007F10284400DA
:1001D00000417F40007C041804787C0804047838CF
:1001E000444444387C14141408081414187C7C0803
:1001F0000404084854545420043F4440203C4040E8
:10020000207C1C2040201C3C4030403C44281028CE
:10021000440C5050503C4464544C44000836410057
:1002200000007F0000004136080010080810080098
:100230000000000011241FBECFE5D4E0DEBFCDBF1B
:1002400010E0A0E6B0E0E4E7F4E002C005900D9213
:10025000AE37B107D9F70E940E020C9438020C9405
:100260000000C19A8FE295E70197F1F700C0000006
:10027000C1989FE729EA83E0915020408040E1F750
:1002800000C00000C19A0895C498C0980E9402025C
:10029000C49A0895C498C09A0E940202C49A08950C
:1002A000CF93DF93992787FD9095809725E0289F2E
:1002B000E001299FD00D1124FE01EC5AFF4F8491DB
:1002C0000E944A01FE01EB5AFF4F84910E944A01AD
:1002D000FE01EA5AFF4F84910E944A01FE01E95A49
:1002E000FF4F84910E944A01FE01E85AFF4F84911A
:1002F000DF91CF910C944A01CF93DF931F92CDB73A
:10030000DEB7806869830E9444016981862F80641A
:100310000E9444018CE00F90DF91CF910C94440136
:100320001F93CF93DF93EC01862F642F0E947C01F3
:1003300010E0FE01E10FF11D8081882321F00E9471
:1003400050011F5FF6CFDF91CF911F910895CF939A
:10035000DF9380E20E9444018CE00E94440180E827
:100360000E94440180E40E944401C8EFD1E080E093
:100370000E944A0121972097D1F780E80E9444010A
:1003800080E4DF91CF910C9444010E94070284E63F
:100390000E940C0281E50E94FA0181E20E94440160
:1003A00087B3836087BB88B3836088BB0E943101B9
:1003B00081E20E94440184E10E94440187EB0E9493
:1003C000440180E20E9444010E94A70142E06AE0E9
:1003D0008EE690E00E9490018DE00E9444012FEF94
:1003E0008EE994E2215080409040E1F700C0000087
:1003F0000C94A701C49ABC9A8DB987B3806B87BB54
:10040000C49A08958FB9779BFECF8FB1089583E783
:1004100083BFBB9AC39A08958CBF08950E94C501FB
:1004200042E06FE080E690E00E9490012FEF8EE9BD
:1004300094E2215080409040E1F700C00000C0E20B
:10044000D0E00E94A70162E08AE20E947C018C2F2A
:100450000E9450012FE78FE492E1215080409040AC
:10046000E1F700C000002196CE37D10554F3E7CF65
:04047000F894FFCF2E
:1004740048656C6C6F207468657265200000526575
:0E048400696E76656E74696F4C61627320005C
:00000001FF
